{
	"data": {
		"bytecode": {
			"linkReferences": {},
			"object": "608060405234801561001057600080fd5b50610d6b806100206000396000f3fe6080604052600436106100555760003560e01c80634013be101461005a5780636a375a091461009b57806384c28700146100c45780639b905eb214610105578063c1cbbca714610142578063fca604d71461015e575b600080fd5b34801561006657600080fd5b50610081600480360381019061007c9190610875565b610189565b604051610092959493929190610979565b60405180910390f35b3480156100a757600080fd5b506100c260048036038101906100bd919061080e565b610274565b005b3480156100d057600080fd5b506100eb60048036038101906100e69190610875565b610384565b6040516100fc9594939291906109d3565b60405180910390f35b34801561011157600080fd5b5061012c600480360381019061012791906107e5565b610488565b6040516101399190610a4d565b60405180910390f35b61015c60048036038101906101579190610875565b6104a0565b005b34801561016a57600080fd5b50610173610695565b6040516101809190610a4d565b60405180910390f35b60016020528060005260406000206000915090508060000180546101ac90610bd7565b80601f01602080910402602001604051908101604052809291908181526020018280546101d890610bd7565b80156102255780601f106101fa57610100808354040283529160200191610225565b820191906000526020600020905b81548152906001019060200180831161020857829003601f168201915b5050505050908060010160009054906101000a900473ffffffffffffffffffffffffffffffffffffffff16908060020154908060030154908060040160009054906101000a900460ff16905085565b60006040518060a001604052808581526020018473ffffffffffffffffffffffffffffffffffffffff168152602001838152602001600081526020016000151581525090508060016000600260008154809291906102d190610c09565b91905055815260200190815260200160002060008201518160000190805190602001906102ff92919061069b565b5060208201518160010160006101000a81548173ffffffffffffffffffffffffffffffffffffffff021916908373ffffffffffffffffffffffffffffffffffffffff160217905550604082015181600201556060820151816003015560808201518160040160006101000a81548160ff02191690831515021790555090505050505050565b60606000806000806000600160008881526020019081526020016000209050806000018160010160009054906101000a900473ffffffffffffffffffffffffffffffffffffffff16826002015483600301548460040160009054906101000a900460ff168480546103f490610bd7565b80601f016020809104026020016040519081016040528092919081815260200182805461042090610bd7565b801561046d5780601f106104425761010080835404028352916020019161046d565b820191906000526020600020905b81548152906001019060200180831161045057829003601f168201915b50505050509450955095509550955095505091939590929450565b60006020528060005260406000206000915090505481565b6001600082815260200190815260200160002060040160009054906101000a900460ff1615610504576040517f08c379a00000000000000000000000000000000000000000000000000000000081526004016104fb90610a2d565b60405180910390fd5b3460016000838152602001908152602001600020600301600082825461052a9190610ae5565b92505081905550346000803373ffffffffffffffffffffffffffffffffffffffff1673ffffffffffffffffffffffffffffffffffffffff168152602001908152602001600020600082825461057f9190610ae5565b925050819055506001600082815260200190815260200160002060010160009054906101000a900473ffffffffffffffffffffffffffffffffffffffff1673ffffffffffffffffffffffffffffffffffffffff166108fc349081150290604051600060405180830381858888f19350505050158015610602573d6000803e3d6000fd5b50600160008281526020019081526020016000206002015460016000838152602001908152602001600020600301541061069257600180600083815260200190815260200160002060040160006101000a81548160ff021916908315150217905550807fbfa307498cac760284a53f7a76d5b314291d3da2e8aea2427ce61f7112b477a860405160405180910390a25b50565b60025481565b8280546106a790610bd7565b90600052602060002090601f0160209004810192826106c95760008555610710565b82601f106106e257805160ff1916838001178555610710565b82800160010185558215610710579182015b8281111561070f5782518255916020019190600101906106f4565b5b50905061071d9190610721565b5090565b5b8082111561073a576000816000905550600101610722565b5090565b600061075161074c84610a99565b610a68565b90508281526020810184848401111561076957600080fd5b610774848285610b95565b509392505050565b60008135905061078b81610cf0565b92915050565b6000813590506107a081610d07565b92915050565b600082601f8301126107b757600080fd5b81356107c784826020860161073e565b91505092915050565b6000813590506107df81610d1e565b92915050565b6000602082840312156107f757600080fd5b60006108058482850161077c565b91505092915050565b60008060006060848603121561082357600080fd5b600084013567ffffffffffffffff81111561083d57600080fd5b610849868287016107a6565b935050602061085a86828701610791565b925050604061086b868287016107d0565b9150509250925092565b60006020828403121561088757600080fd5b6000610895848285016107d0565b91505092915050565b6108a781610b4d565b82525050565b6108b681610b3b565b82525050565b6108c581610b5f565b82525050565b60006108d682610ac9565b6108e08185610ad4565b93506108f0818560208601610ba4565b6108f981610cdf565b840191505092915050565b6000610911602583610ad4565b91507f43616d706169676e2068617320616c726561647920726561636865642069747360008301527f20676f616c0000000000000000000000000000000000000000000000000000006020830152604082019050919050565b61097381610b8b565b82525050565b600060a082019050818103600083015261099381886108cb565b90506109a2602083018761089e565b6109af604083018661096a565b6109bc606083018561096a565b6109c960808301846108bc565b9695505050505050565b600060a08201905081810360008301526109ed81886108cb565b90506109fc60208301876108ad565b610a09604083018661096a565b610a16606083018561096a565b610a2360808301846108bc565b9695505050505050565b60006020820190508181036000830152610a4681610904565b9050919050565b6000602082019050610a62600083018461096a565b92915050565b6000604051905081810181811067ffffffffffffffff82111715610a8f57610a8e610cb0565b5b8060405250919050565b600067ffffffffffffffff821115610ab457610ab3610cb0565b5b601f19601f8301169050602081019050919050565b600081519050919050565b600082825260208201905092915050565b6000610af082610b8b565b9150610afb83610b8b565b9250827fffffffffffffffffffffffffffffffffffffffffffffffffffffffffffffffff03821115610b3057610b2f610c52565b5b828201905092915050565b6000610b4682610b6b565b9050919050565b6000610b5882610b6b565b9050919050565b60008115159050919050565b600073ffffffffffffffffffffffffffffffffffffffff82169050919050565b6000819050919050565b82818337600083830152505050565b60005b83811015610bc2578082015181840152602081019050610ba7565b83811115610bd1576000848401525b50505050565b60006002820490506001821680610bef57607f821691505b60208210811415610c0357610c02610c81565b5b50919050565b6000610c1482610b8b565b91507fffffffffffffffffffffffffffffffffffffffffffffffffffffffffffffffff821415610c4757610c46610c52565b5b600182019050919050565b7f4e487b7100000000000000000000000000000000000000000000000000000000600052601160045260246000fd5b7f4e487b7100000000000000000000000000000000000000000000000000000000600052602260045260246000fd5b7f4e487b7100000000000000000000000000000000000000000000000000000000600052604160045260246000fd5b6000601f19601f8301169050919050565b610cf981610b3b565b8114610d0457600080fd5b50565b610d1081610b4d565b8114610d1b57600080fd5b50565b610d2781610b8b565b8114610d3257600080fd5b5056fea26469706673582212209ecb9932e54f75690e858c41a009fc2595798eb4b35c08b0189b602d2e144e4464736f6c63430008000033",
			"opcodes": "PUSH1 0x80 PUSH1 0x40 MSTORE CALLVALUE DUP1 ISZERO PUSH2 0x10 JUMPI PUSH1 0x0 DUP1 REVERT JUMPDEST POP PUSH2 0xD6B DUP1 PUSH2 0x20 PUSH1 0x0 CODECOPY PUSH1 0x0 RETURN INVALID PUSH1 0x80 PUSH1 0x40 MSTORE PUSH1 0x4 CALLDATASIZE LT PUSH2 0x55 JUMPI PUSH1 0x0 CALLDATALOAD PUSH1 0xE0 SHR DUP1 PUSH4 0x4013BE10 EQ PUSH2 0x5A JUMPI DUP1 PUSH4 0x6A375A09 EQ PUSH2 0x9B JUMPI DUP1 PUSH4 0x84C28700 EQ PUSH2 0xC4 JUMPI DUP1 PUSH4 0x9B905EB2 EQ PUSH2 0x105 JUMPI DUP1 PUSH4 0xC1CBBCA7 EQ PUSH2 0x142 JUMPI DUP1 PUSH4 0xFCA604D7 EQ PUSH2 0x15E JUMPI JUMPDEST PUSH1 0x0 DUP1 REVERT JUMPDEST CALLVALUE DUP1 ISZERO PUSH2 0x66 JUMPI PUSH1 0x0 DUP1 REVERT JUMPDEST POP PUSH2 0x81 PUSH1 0x4 DUP1 CALLDATASIZE SUB DUP2 ADD SWAP1 PUSH2 0x7C SWAP2 SWAP1 PUSH2 0x875 JUMP JUMPDEST PUSH2 0x189 JUMP JUMPDEST PUSH1 0x40 MLOAD PUSH2 0x92 SWAP6 SWAP5 SWAP4 SWAP3 SWAP2 SWAP1 PUSH2 0x979 JUMP JUMPDEST PUSH1 0x40 MLOAD DUP1 SWAP2 SUB SWAP1 RETURN JUMPDEST CALLVALUE DUP1 ISZERO PUSH2 0xA7 JUMPI PUSH1 0x0 DUP1 REVERT JUMPDEST POP PUSH2 0xC2 PUSH1 0x4 DUP1 CALLDATASIZE SUB DUP2 ADD SWAP1 PUSH2 0xBD SWAP2 SWAP1 PUSH2 0x80E JUMP JUMPDEST PUSH2 0x274 JUMP JUMPDEST STOP JUMPDEST CALLVALUE DUP1 ISZERO PUSH2 0xD0 JUMPI PUSH1 0x0 DUP1 REVERT JUMPDEST POP PUSH2 0xEB PUSH1 0x4 DUP1 CALLDATASIZE SUB DUP2 ADD SWAP1 PUSH2 0xE6 SWAP2 SWAP1 PUSH2 0x875 JUMP JUMPDEST PUSH2 0x384 JUMP JUMPDEST PUSH1 0x40 MLOAD PUSH2 0xFC SWAP6 SWAP5 SWAP4 SWAP3 SWAP2 SWAP1 PUSH2 0x9D3 JUMP JUMPDEST PUSH1 0x40 MLOAD DUP1 SWAP2 SUB SWAP1 RETURN JUMPDEST CALLVALUE DUP1 ISZERO PUSH2 0x111 JUMPI PUSH1 0x0 DUP1 REVERT JUMPDEST POP PUSH2 0x12C PUSH1 0x4 DUP1 CALLDATASIZE SUB DUP2 ADD SWAP1 PUSH2 0x127 SWAP2 SWAP1 PUSH2 0x7E5 JUMP JUMPDEST PUSH2 0x488 JUMP JUMPDEST PUSH1 0x40 MLOAD PUSH2 0x139 SWAP2 SWAP1 PUSH2 0xA4D JUMP JUMPDEST PUSH1 0x40 MLOAD DUP1 SWAP2 SUB SWAP1 RETURN JUMPDEST PUSH2 0x15C PUSH1 0x4 DUP1 CALLDATASIZE SUB DUP2 ADD SWAP1 PUSH2 0x157 SWAP2 SWAP1 PUSH2 0x875 JUMP JUMPDEST PUSH2 0x4A0 JUMP JUMPDEST STOP JUMPDEST CALLVALUE DUP1 ISZERO PUSH2 0x16A JUMPI PUSH1 0x0 DUP1 REVERT JUMPDEST POP PUSH2 0x173 PUSH2 0x695 JUMP JUMPDEST PUSH1 0x40 MLOAD PUSH2 0x180 SWAP2 SWAP1 PUSH2 0xA4D JUMP JUMPDEST PUSH1 0x40 MLOAD DUP1 SWAP2 SUB SWAP1 RETURN JUMPDEST PUSH1 0x1 PUSH1 0x20 MSTORE DUP1 PUSH1 0x0 MSTORE PUSH1 0x40 PUSH1 0x0 KECCAK256 PUSH1 0x0 SWAP2 POP SWAP1 POP DUP1 PUSH1 0x0 ADD DUP1 SLOAD PUSH2 0x1AC SWAP1 PUSH2 0xBD7 JUMP JUMPDEST DUP1 PUSH1 0x1F ADD PUSH1 0x20 DUP1 SWAP2 DIV MUL PUSH1 0x20 ADD PUSH1 0x40 MLOAD SWAP1 DUP2 ADD PUSH1 0x40 MSTORE DUP1 SWAP3 SWAP2 SWAP1 DUP2 DUP2 MSTORE PUSH1 0x20 ADD DUP3 DUP1 SLOAD PUSH2 0x1D8 SWAP1 PUSH2 0xBD7 JUMP JUMPDEST DUP1 ISZERO PUSH2 0x225 JUMPI DUP1 PUSH1 0x1F LT PUSH2 0x1FA JUMPI PUSH2 0x100 DUP1 DUP4 SLOAD DIV MUL DUP4 MSTORE SWAP2 PUSH1 0x20 ADD SWAP2 PUSH2 0x225 JUMP JUMPDEST DUP3 ADD SWAP2 SWAP1 PUSH1 0x0 MSTORE PUSH1 0x20 PUSH1 0x0 KECCAK256 SWAP1 JUMPDEST DUP2 SLOAD DUP2 MSTORE SWAP1 PUSH1 0x1 ADD SWAP1 PUSH1 0x20 ADD DUP1 DUP4 GT PUSH2 0x208 JUMPI DUP3 SWAP1 SUB PUSH1 0x1F AND DUP3 ADD SWAP2 JUMPDEST POP POP POP POP POP SWAP1 DUP1 PUSH1 0x1 ADD PUSH1 0x0 SWAP1 SLOAD SWAP1 PUSH2 0x100 EXP SWAP1 DIV PUSH20 0xFFFFFFFFFFFFFFFFFFFFFFFFFFFFFFFFFFFFFFFF AND SWAP1 DUP1 PUSH1 0x2 ADD SLOAD SWAP1 DUP1 PUSH1 0x3 ADD SLOAD SWAP1 DUP1 PUSH1 0x4 ADD PUSH1 0x0 SWAP1 SLOAD SWAP1 PUSH2 0x100 EXP SWAP1 DIV PUSH1 0xFF AND SWAP1 POP DUP6 JUMP JUMPDEST PUSH1 0x0 PUSH1 0x40 MLOAD DUP1 PUSH1 0xA0 ADD PUSH1 0x40 MSTORE DUP1 DUP6 DUP2 MSTORE PUSH1 0x20 ADD DUP5 PUSH20 0xFFFFFFFFFFFFFFFFFFFFFFFFFFFFFFFFFFFFFFFF AND DUP2 MSTORE PUSH1 0x20 ADD DUP4 DUP2 MSTORE PUSH1 0x20 ADD PUSH1 0x0 DUP2 MSTORE PUSH1 0x20 ADD PUSH1 0x0 ISZERO ISZERO DUP2 MSTORE POP SWAP1 POP DUP1 PUSH1 0x1 PUSH1 0x0 PUSH1 0x2 PUSH1 0x0 DUP2 SLOAD DUP1 SWAP3 SWAP2 SWAP1 PUSH2 0x2D1 SWAP1 PUSH2 0xC09 JUMP JUMPDEST SWAP2 SWAP1 POP SSTORE DUP2 MSTORE PUSH1 0x20 ADD SWAP1 DUP2 MSTORE PUSH1 0x20 ADD PUSH1 0x0 KECCAK256 PUSH1 0x0 DUP3 ADD MLOAD DUP2 PUSH1 0x0 ADD SWAP1 DUP1 MLOAD SWAP1 PUSH1 0x20 ADD SWAP1 PUSH2 0x2FF SWAP3 SWAP2 SWAP1 PUSH2 0x69B JUMP JUMPDEST POP PUSH1 0x20 DUP3 ADD MLOAD DUP2 PUSH1 0x1 ADD PUSH1 0x0 PUSH2 0x100 EXP DUP2 SLOAD DUP2 PUSH20 0xFFFFFFFFFFFFFFFFFFFFFFFFFFFFFFFFFFFFFFFF MUL NOT AND SWAP1 DUP4 PUSH20 0xFFFFFFFFFFFFFFFFFFFFFFFFFFFFFFFFFFFFFFFF AND MUL OR SWAP1 SSTORE POP PUSH1 0x40 DUP3 ADD MLOAD DUP2 PUSH1 0x2 ADD SSTORE PUSH1 0x60 DUP3 ADD MLOAD DUP2 PUSH1 0x3 ADD SSTORE PUSH1 0x80 DUP3 ADD MLOAD DUP2 PUSH1 0x4 ADD PUSH1 0x0 PUSH2 0x100 EXP DUP2 SLOAD DUP2 PUSH1 0xFF MUL NOT AND SWAP1 DUP4 ISZERO ISZERO MUL OR SWAP1 SSTORE POP SWAP1 POP POP POP POP POP POP JUMP JUMPDEST PUSH1 0x60 PUSH1 0x0 DUP1 PUSH1 0x0 DUP1 PUSH1 0x0 PUSH1 0x1 PUSH1 0x0 DUP9 DUP2 MSTORE PUSH1 0x20 ADD SWAP1 DUP2 MSTORE PUSH1 0x20 ADD PUSH1 0x0 KECCAK256 SWAP1 POP DUP1 PUSH1 0x0 ADD DUP2 PUSH1 0x1 ADD PUSH1 0x0 SWAP1 SLOAD SWAP1 PUSH2 0x100 EXP SWAP1 DIV PUSH20 0xFFFFFFFFFFFFFFFFFFFFFFFFFFFFFFFFFFFFFFFF AND DUP3 PUSH1 0x2 ADD SLOAD DUP4 PUSH1 0x3 ADD SLOAD DUP5 PUSH1 0x4 ADD PUSH1 0x0 SWAP1 SLOAD SWAP1 PUSH2 0x100 EXP SWAP1 DIV PUSH1 0xFF AND DUP5 DUP1 SLOAD PUSH2 0x3F4 SWAP1 PUSH2 0xBD7 JUMP JUMPDEST DUP1 PUSH1 0x1F ADD PUSH1 0x20 DUP1 SWAP2 DIV MUL PUSH1 0x20 ADD PUSH1 0x40 MLOAD SWAP1 DUP2 ADD PUSH1 0x40 MSTORE DUP1 SWAP3 SWAP2 SWAP1 DUP2 DUP2 MSTORE PUSH1 0x20 ADD DUP3 DUP1 SLOAD PUSH2 0x420 SWAP1 PUSH2 0xBD7 JUMP JUMPDEST DUP1 ISZERO PUSH2 0x46D JUMPI DUP1 PUSH1 0x1F LT PUSH2 0x442 JUMPI PUSH2 0x100 DUP1 DUP4 SLOAD DIV MUL DUP4 MSTORE SWAP2 PUSH1 0x20 ADD SWAP2 PUSH2 0x46D JUMP JUMPDEST DUP3 ADD SWAP2 SWAP1 PUSH1 0x0 MSTORE PUSH1 0x20 PUSH1 0x0 KECCAK256 SWAP1 JUMPDEST DUP2 SLOAD DUP2 MSTORE SWAP1 PUSH1 0x1 ADD SWAP1 PUSH1 0x20 ADD DUP1 DUP4 GT PUSH2 0x450 JUMPI DUP3 SWAP1 SUB PUSH1 0x1F AND DUP3 ADD SWAP2 JUMPDEST POP POP POP POP POP SWAP5 POP SWAP6 POP SWAP6 POP SWAP6 POP SWAP6 POP SWAP6 POP POP SWAP2 SWAP4 SWAP6 SWAP1 SWAP3 SWAP5 POP JUMP JUMPDEST PUSH1 0x0 PUSH1 0x20 MSTORE DUP1 PUSH1 0x0 MSTORE PUSH1 0x40 PUSH1 0x0 KECCAK256 PUSH1 0x0 SWAP2 POP SWAP1 POP SLOAD DUP2 JUMP JUMPDEST PUSH1 0x1 PUSH1 0x0 DUP3 DUP2 MSTORE PUSH1 0x20 ADD SWAP1 DUP2 MSTORE PUSH1 0x20 ADD PUSH1 0x0 KECCAK256 PUSH1 0x4 ADD PUSH1 0x0 SWAP1 SLOAD SWAP1 PUSH2 0x100 EXP SWAP1 DIV PUSH1 0xFF AND ISZERO PUSH2 0x504 JUMPI PUSH1 0x40 MLOAD PUSH32 0x8C379A000000000000000000000000000000000000000000000000000000000 DUP2 MSTORE PUSH1 0x4 ADD PUSH2 0x4FB SWAP1 PUSH2 0xA2D JUMP JUMPDEST PUSH1 0x40 MLOAD DUP1 SWAP2 SUB SWAP1 REVERT JUMPDEST CALLVALUE PUSH1 0x1 PUSH1 0x0 DUP4 DUP2 MSTORE PUSH1 0x20 ADD SWAP1 DUP2 MSTORE PUSH1 0x20 ADD PUSH1 0x0 KECCAK256 PUSH1 0x3 ADD PUSH1 0x0 DUP3 DUP3 SLOAD PUSH2 0x52A SWAP2 SWAP1 PUSH2 0xAE5 JUMP JUMPDEST SWAP3 POP POP DUP2 SWAP1 SSTORE POP CALLVALUE PUSH1 0x0 DUP1 CALLER PUSH20 0xFFFFFFFFFFFFFFFFFFFFFFFFFFFFFFFFFFFFFFFF AND PUSH20 0xFFFFFFFFFFFFFFFFFFFFFFFFFFFFFFFFFFFFFFFF AND DUP2 MSTORE PUSH1 0x20 ADD SWAP1 DUP2 MSTORE PUSH1 0x20 ADD PUSH1 0x0 KECCAK256 PUSH1 0x0 DUP3 DUP3 SLOAD PUSH2 0x57F SWAP2 SWAP1 PUSH2 0xAE5 JUMP JUMPDEST SWAP3 POP POP DUP2 SWAP1 SSTORE POP PUSH1 0x1 PUSH1 0x0 DUP3 DUP2 MSTORE PUSH1 0x20 ADD SWAP1 DUP2 MSTORE PUSH1 0x20 ADD PUSH1 0x0 KECCAK256 PUSH1 0x1 ADD PUSH1 0x0 SWAP1 SLOAD SWAP1 PUSH2 0x100 EXP SWAP1 DIV PUSH20 0xFFFFFFFFFFFFFFFFFFFFFFFFFFFFFFFFFFFFFFFF AND PUSH20 0xFFFFFFFFFFFFFFFFFFFFFFFFFFFFFFFFFFFFFFFF AND PUSH2 0x8FC CALLVALUE SWAP1 DUP2 ISZERO MUL SWAP1 PUSH1 0x40 MLOAD PUSH1 0x0 PUSH1 0x40 MLOAD DUP1 DUP4 SUB DUP2 DUP6 DUP9 DUP9 CALL SWAP4 POP POP POP POP ISZERO DUP1 ISZERO PUSH2 0x602 JUMPI RETURNDATASIZE PUSH1 0x0 DUP1 RETURNDATACOPY RETURNDATASIZE PUSH1 0x0 REVERT JUMPDEST POP PUSH1 0x1 PUSH1 0x0 DUP3 DUP2 MSTORE PUSH1 0x20 ADD SWAP1 DUP2 MSTORE PUSH1 0x20 ADD PUSH1 0x0 KECCAK256 PUSH1 0x2 ADD SLOAD PUSH1 0x1 PUSH1 0x0 DUP4 DUP2 MSTORE PUSH1 0x20 ADD SWAP1 DUP2 MSTORE PUSH1 0x20 ADD PUSH1 0x0 KECCAK256 PUSH1 0x3 ADD SLOAD LT PUSH2 0x692 JUMPI PUSH1 0x1 DUP1 PUSH1 0x0 DUP4 DUP2 MSTORE PUSH1 0x20 ADD SWAP1 DUP2 MSTORE PUSH1 0x20 ADD PUSH1 0x0 KECCAK256 PUSH1 0x4 ADD PUSH1 0x0 PUSH2 0x100 EXP DUP2 SLOAD DUP2 PUSH1 0xFF MUL NOT AND SWAP1 DUP4 ISZERO ISZERO MUL OR SWAP1 SSTORE POP DUP1 PUSH32 0xBFA307498CAC760284A53F7A76D5B314291D3DA2E8AEA2427CE61F7112B477A8 PUSH1 0x40 MLOAD PUSH1 0x40 MLOAD DUP1 SWAP2 SUB SWAP1 LOG2 JUMPDEST POP JUMP JUMPDEST PUSH1 0x2 SLOAD DUP2 JUMP JUMPDEST DUP3 DUP1 SLOAD PUSH2 0x6A7 SWAP1 PUSH2 0xBD7 JUMP JUMPDEST SWAP1 PUSH1 0x0 MSTORE PUSH1 0x20 PUSH1 0x0 KECCAK256 SWAP1 PUSH1 0x1F ADD PUSH1 0x20 SWAP1 DIV DUP2 ADD SWAP3 DUP3 PUSH2 0x6C9 JUMPI PUSH1 0x0 DUP6 SSTORE PUSH2 0x710 JUMP JUMPDEST DUP3 PUSH1 0x1F LT PUSH2 0x6E2 JUMPI DUP1 MLOAD PUSH1 0xFF NOT AND DUP4 DUP1 ADD OR DUP6 SSTORE PUSH2 0x710 JUMP JUMPDEST DUP3 DUP1 ADD PUSH1 0x1 ADD DUP6 SSTORE DUP3 ISZERO PUSH2 0x710 JUMPI SWAP2 DUP3 ADD JUMPDEST DUP3 DUP2 GT ISZERO PUSH2 0x70F JUMPI DUP3 MLOAD DUP3 SSTORE SWAP2 PUSH1 0x20 ADD SWAP2 SWAP1 PUSH1 0x1 ADD SWAP1 PUSH2 0x6F4 JUMP JUMPDEST JUMPDEST POP SWAP1 POP PUSH2 0x71D SWAP2 SWAP1 PUSH2 0x721 JUMP JUMPDEST POP SWAP1 JUMP JUMPDEST JUMPDEST DUP1 DUP3 GT ISZERO PUSH2 0x73A JUMPI PUSH1 0x0 DUP2 PUSH1 0x0 SWAP1 SSTORE POP PUSH1 0x1 ADD PUSH2 0x722 JUMP JUMPDEST POP SWAP1 JUMP JUMPDEST PUSH1 0x0 PUSH2 0x751 PUSH2 0x74C DUP5 PUSH2 0xA99 JUMP JUMPDEST PUSH2 0xA68 JUMP JUMPDEST SWAP1 POP DUP3 DUP2 MSTORE PUSH1 0x20 DUP2 ADD DUP5 DUP5 DUP5 ADD GT ISZERO PUSH2 0x769 JUMPI PUSH1 0x0 DUP1 REVERT JUMPDEST PUSH2 0x774 DUP5 DUP3 DUP6 PUSH2 0xB95 JUMP JUMPDEST POP SWAP4 SWAP3 POP POP POP JUMP JUMPDEST PUSH1 0x0 DUP2 CALLDATALOAD SWAP1 POP PUSH2 0x78B DUP2 PUSH2 0xCF0 JUMP JUMPDEST SWAP3 SWAP2 POP POP JUMP JUMPDEST PUSH1 0x0 DUP2 CALLDATALOAD SWAP1 POP PUSH2 0x7A0 DUP2 PUSH2 0xD07 JUMP JUMPDEST SWAP3 SWAP2 POP POP JUMP JUMPDEST PUSH1 0x0 DUP3 PUSH1 0x1F DUP4 ADD SLT PUSH2 0x7B7 JUMPI PUSH1 0x0 DUP1 REVERT JUMPDEST DUP2 CALLDATALOAD PUSH2 0x7C7 DUP5 DUP3 PUSH1 0x20 DUP7 ADD PUSH2 0x73E JUMP JUMPDEST SWAP2 POP POP SWAP3 SWAP2 POP POP JUMP JUMPDEST PUSH1 0x0 DUP2 CALLDATALOAD SWAP1 POP PUSH2 0x7DF DUP2 PUSH2 0xD1E JUMP JUMPDEST SWAP3 SWAP2 POP POP JUMP JUMPDEST PUSH1 0x0 PUSH1 0x20 DUP3 DUP5 SUB SLT ISZERO PUSH2 0x7F7 JUMPI PUSH1 0x0 DUP1 REVERT JUMPDEST PUSH1 0x0 PUSH2 0x805 DUP5 DUP3 DUP6 ADD PUSH2 0x77C JUMP JUMPDEST SWAP2 POP POP SWAP3 SWAP2 POP POP JUMP JUMPDEST PUSH1 0x0 DUP1 PUSH1 0x0 PUSH1 0x60 DUP5 DUP7 SUB SLT ISZERO PUSH2 0x823 JUMPI PUSH1 0x0 DUP1 REVERT JUMPDEST PUSH1 0x0 DUP5 ADD CALLDATALOAD PUSH8 0xFFFFFFFFFFFFFFFF DUP2 GT ISZERO PUSH2 0x83D JUMPI PUSH1 0x0 DUP1 REVERT JUMPDEST PUSH2 0x849 DUP7 DUP3 DUP8 ADD PUSH2 0x7A6 JUMP JUMPDEST SWAP4 POP POP PUSH1 0x20 PUSH2 0x85A DUP7 DUP3 DUP8 ADD PUSH2 0x791 JUMP JUMPDEST SWAP3 POP POP PUSH1 0x40 PUSH2 0x86B DUP7 DUP3 DUP8 ADD PUSH2 0x7D0 JUMP JUMPDEST SWAP2 POP POP SWAP3 POP SWAP3 POP SWAP3 JUMP JUMPDEST PUSH1 0x0 PUSH1 0x20 DUP3 DUP5 SUB SLT ISZERO PUSH2 0x887 JUMPI PUSH1 0x0 DUP1 REVERT JUMPDEST PUSH1 0x0 PUSH2 0x895 DUP5 DUP3 DUP6 ADD PUSH2 0x7D0 JUMP JUMPDEST SWAP2 POP POP SWAP3 SWAP2 POP POP JUMP JUMPDEST PUSH2 0x8A7 DUP2 PUSH2 0xB4D JUMP JUMPDEST DUP3 MSTORE POP POP JUMP JUMPDEST PUSH2 0x8B6 DUP2 PUSH2 0xB3B JUMP JUMPDEST DUP3 MSTORE POP POP JUMP JUMPDEST PUSH2 0x8C5 DUP2 PUSH2 0xB5F JUMP JUMPDEST DUP3 MSTORE POP POP JUMP JUMPDEST PUSH1 0x0 PUSH2 0x8D6 DUP3 PUSH2 0xAC9 JUMP JUMPDEST PUSH2 0x8E0 DUP2 DUP6 PUSH2 0xAD4 JUMP JUMPDEST SWAP4 POP PUSH2 0x8F0 DUP2 DUP6 PUSH1 0x20 DUP7 ADD PUSH2 0xBA4 JUMP JUMPDEST PUSH2 0x8F9 DUP2 PUSH2 0xCDF JUMP JUMPDEST DUP5 ADD SWAP2 POP POP SWAP3 SWAP2 POP POP JUMP JUMPDEST PUSH1 0x0 PUSH2 0x911 PUSH1 0x25 DUP4 PUSH2 0xAD4 JUMP JUMPDEST SWAP2 POP PUSH32 0x43616D706169676E2068617320616C7265616479207265616368656420697473 PUSH1 0x0 DUP4 ADD MSTORE PUSH32 0x20676F616C000000000000000000000000000000000000000000000000000000 PUSH1 0x20 DUP4 ADD MSTORE PUSH1 0x40 DUP3 ADD SWAP1 POP SWAP2 SWAP1 POP JUMP JUMPDEST PUSH2 0x973 DUP2 PUSH2 0xB8B JUMP JUMPDEST DUP3 MSTORE POP POP JUMP JUMPDEST PUSH1 0x0 PUSH1 0xA0 DUP3 ADD SWAP1 POP DUP2 DUP2 SUB PUSH1 0x0 DUP4 ADD MSTORE PUSH2 0x993 DUP2 DUP9 PUSH2 0x8CB JUMP JUMPDEST SWAP1 POP PUSH2 0x9A2 PUSH1 0x20 DUP4 ADD DUP8 PUSH2 0x89E JUMP JUMPDEST PUSH2 0x9AF PUSH1 0x40 DUP4 ADD DUP7 PUSH2 0x96A JUMP JUMPDEST PUSH2 0x9BC PUSH1 0x60 DUP4 ADD DUP6 PUSH2 0x96A JUMP JUMPDEST PUSH2 0x9C9 PUSH1 0x80 DUP4 ADD DUP5 PUSH2 0x8BC JUMP JUMPDEST SWAP7 SWAP6 POP POP POP POP POP POP JUMP JUMPDEST PUSH1 0x0 PUSH1 0xA0 DUP3 ADD SWAP1 POP DUP2 DUP2 SUB PUSH1 0x0 DUP4 ADD MSTORE PUSH2 0x9ED DUP2 DUP9 PUSH2 0x8CB JUMP JUMPDEST SWAP1 POP PUSH2 0x9FC PUSH1 0x20 DUP4 ADD DUP8 PUSH2 0x8AD JUMP JUMPDEST PUSH2 0xA09 PUSH1 0x40 DUP4 ADD DUP7 PUSH2 0x96A JUMP JUMPDEST PUSH2 0xA16 PUSH1 0x60 DUP4 ADD DUP6 PUSH2 0x96A JUMP JUMPDEST PUSH2 0xA23 PUSH1 0x80 DUP4 ADD DUP5 PUSH2 0x8BC JUMP JUMPDEST SWAP7 SWAP6 POP POP POP POP POP POP JUMP JUMPDEST PUSH1 0x0 PUSH1 0x20 DUP3 ADD SWAP1 POP DUP2 DUP2 SUB PUSH1 0x0 DUP4 ADD MSTORE PUSH2 0xA46 DUP2 PUSH2 0x904 JUMP JUMPDEST SWAP1 POP SWAP2 SWAP1 POP JUMP JUMPDEST PUSH1 0x0 PUSH1 0x20 DUP3 ADD SWAP1 POP PUSH2 0xA62 PUSH1 0x0 DUP4 ADD DUP5 PUSH2 0x96A JUMP JUMPDEST SWAP3 SWAP2 POP POP JUMP JUMPDEST PUSH1 0x0 PUSH1 0x40 MLOAD SWAP1 POP DUP2 DUP2 ADD DUP2 DUP2 LT PUSH8 0xFFFFFFFFFFFFFFFF DUP3 GT OR ISZERO PUSH2 0xA8F JUMPI PUSH2 0xA8E PUSH2 0xCB0 JUMP JUMPDEST JUMPDEST DUP1 PUSH1 0x40 MSTORE POP SWAP2 SWAP1 POP JUMP JUMPDEST PUSH1 0x0 PUSH8 0xFFFFFFFFFFFFFFFF DUP3 GT ISZERO PUSH2 0xAB4 JUMPI PUSH2 0xAB3 PUSH2 0xCB0 JUMP JUMPDEST JUMPDEST PUSH1 0x1F NOT PUSH1 0x1F DUP4 ADD AND SWAP1 POP PUSH1 0x20 DUP2 ADD SWAP1 POP SWAP2 SWAP1 POP JUMP JUMPDEST PUSH1 0x0 DUP2 MLOAD SWAP1 POP SWAP2 SWAP1 POP JUMP JUMPDEST PUSH1 0x0 DUP3 DUP3 MSTORE PUSH1 0x20 DUP3 ADD SWAP1 POP SWAP3 SWAP2 POP POP JUMP JUMPDEST PUSH1 0x0 PUSH2 0xAF0 DUP3 PUSH2 0xB8B JUMP JUMPDEST SWAP2 POP PUSH2 0xAFB DUP4 PUSH2 0xB8B JUMP JUMPDEST SWAP3 POP DUP3 PUSH32 0xFFFFFFFFFFFFFFFFFFFFFFFFFFFFFFFFFFFFFFFFFFFFFFFFFFFFFFFFFFFFFFFF SUB DUP3 GT ISZERO PUSH2 0xB30 JUMPI PUSH2 0xB2F PUSH2 0xC52 JUMP JUMPDEST JUMPDEST DUP3 DUP3 ADD SWAP1 POP SWAP3 SWAP2 POP POP JUMP JUMPDEST PUSH1 0x0 PUSH2 0xB46 DUP3 PUSH2 0xB6B JUMP JUMPDEST SWAP1 POP SWAP2 SWAP1 POP JUMP JUMPDEST PUSH1 0x0 PUSH2 0xB58 DUP3 PUSH2 0xB6B JUMP JUMPDEST SWAP1 POP SWAP2 SWAP1 POP JUMP JUMPDEST PUSH1 0x0 DUP2 ISZERO ISZERO SWAP1 POP SWAP2 SWAP1 POP JUMP JUMPDEST PUSH1 0x0 PUSH20 0xFFFFFFFFFFFFFFFFFFFFFFFFFFFFFFFFFFFFFFFF DUP3 AND SWAP1 POP SWAP2 SWAP1 POP JUMP JUMPDEST PUSH1 0x0 DUP2 SWAP1 POP SWAP2 SWAP1 POP JUMP JUMPDEST DUP3 DUP2 DUP4 CALLDATACOPY PUSH1 0x0 DUP4 DUP4 ADD MSTORE POP POP POP JUMP JUMPDEST PUSH1 0x0 JUMPDEST DUP4 DUP2 LT ISZERO PUSH2 0xBC2 JUMPI DUP1 DUP3 ADD MLOAD DUP2 DUP5 ADD MSTORE PUSH1 0x20 DUP2 ADD SWAP1 POP PUSH2 0xBA7 JUMP JUMPDEST DUP4 DUP2 GT ISZERO PUSH2 0xBD1 JUMPI PUSH1 0x0 DUP5 DUP5 ADD MSTORE JUMPDEST POP POP POP POP JUMP JUMPDEST PUSH1 0x0 PUSH1 0x2 DUP3 DIV SWAP1 POP PUSH1 0x1 DUP3 AND DUP1 PUSH2 0xBEF JUMPI PUSH1 0x7F DUP3 AND SWAP2 POP JUMPDEST PUSH1 0x20 DUP3 LT DUP2 EQ ISZERO PUSH2 0xC03 JUMPI PUSH2 0xC02 PUSH2 0xC81 JUMP JUMPDEST JUMPDEST POP SWAP2 SWAP1 POP JUMP JUMPDEST PUSH1 0x0 PUSH2 0xC14 DUP3 PUSH2 0xB8B JUMP JUMPDEST SWAP2 POP PUSH32 0xFFFFFFFFFFFFFFFFFFFFFFFFFFFFFFFFFFFFFFFFFFFFFFFFFFFFFFFFFFFFFFFF DUP3 EQ ISZERO PUSH2 0xC47 JUMPI PUSH2 0xC46 PUSH2 0xC52 JUMP JUMPDEST JUMPDEST PUSH1 0x1 DUP3 ADD SWAP1 POP SWAP2 SWAP1 POP JUMP JUMPDEST PUSH32 0x4E487B7100000000000000000000000000000000000000000000000000000000 PUSH1 0x0 MSTORE PUSH1 0x11 PUSH1 0x4 MSTORE PUSH1 0x24 PUSH1 0x0 REVERT JUMPDEST PUSH32 0x4E487B7100000000000000000000000000000000000000000000000000000000 PUSH1 0x0 MSTORE PUSH1 0x22 PUSH1 0x4 MSTORE PUSH1 0x24 PUSH1 0x0 REVERT JUMPDEST PUSH32 0x4E487B7100000000000000000000000000000000000000000000000000000000 PUSH1 0x0 MSTORE PUSH1 0x41 PUSH1 0x4 MSTORE PUSH1 0x24 PUSH1 0x0 REVERT JUMPDEST PUSH1 0x0 PUSH1 0x1F NOT PUSH1 0x1F DUP4 ADD AND SWAP1 POP SWAP2 SWAP1 POP JUMP JUMPDEST PUSH2 0xCF9 DUP2 PUSH2 0xB3B JUMP JUMPDEST DUP2 EQ PUSH2 0xD04 JUMPI PUSH1 0x0 DUP1 REVERT JUMPDEST POP JUMP JUMPDEST PUSH2 0xD10 DUP2 PUSH2 0xB4D JUMP JUMPDEST DUP2 EQ PUSH2 0xD1B JUMPI PUSH1 0x0 DUP1 REVERT JUMPDEST POP JUMP JUMPDEST PUSH2 0xD27 DUP2 PUSH2 0xB8B JUMP JUMPDEST DUP2 EQ PUSH2 0xD32 JUMPI PUSH1 0x0 DUP1 REVERT JUMPDEST POP JUMP INVALID LOG2 PUSH5 0x6970667358 0x22 SLT KECCAK256 SWAP15 0xCB SWAP10 ORIGIN 0xE5 0x4F PUSH22 0x690E858C41A009FC2595798EB4B35C08B0189B602D2E EQ 0x4E DIFFICULTY PUSH5 0x736F6C6343 STOP ADDMOD STOP STOP CALLER "
		},
		"gasEstimates": {
			"creation": {
				"codeDepositCost": "687000",
				"executionCost": "721",
				"totalCost": "687721"
			},
			"external": {
				"Campaigns(uint256)": "infinite",
				"ContributersBalance(address)": "1558",
				"campaignCounter()": "1217",
				"campaignCreator(string,address,uint256)": "infinite",
				"contribute(uint256)": "infinite",
				"showCampaigns(uint256)": "infinite"
			}
		},
		"methodIdentifiers": {
			"Campaigns(uint256)": "4013be10",
			"ContributersBalance(address)": "9b905eb2",
			"campaignCounter()": "fca604d7",
			"campaignCreator(string,address,uint256)": "6a375a09",
			"contribute(uint256)": "c1cbbca7",
			"showCampaigns(uint256)": "84c28700"
		}
	},
	"abi": [
		{
			"anonymous": false,
			"inputs": [
				{
					"indexed": true,
					"internalType": "uint256",
					"name": "campaignIndex",
					"type": "uint256"
				}
			],
			"name": "CampaignGoalReached",
			"type": "event"
		},
		{
			"inputs": [
				{
					"internalType": "uint256",
					"name": "",
					"type": "uint256"
				}
			],
			"name": "Campaigns",
			"outputs": [
				{
					"internalType": "string",
					"name": "campaignName",
					"type": "string"
				},
				{
					"internalType": "address payable",
					"name": "creatorsAddress",
					"type": "address"
				},
				{
					"internalType": "uint256",
					"name": "goalAmount",
					"type": "uint256"
				},
				{
					"internalType": "uint256",
					"name": "currentAmount",
					"type": "uint256"
				},
				{
					"internalType": "bool",
					"name": "hasReachedGoal",
					"type": "bool"
				}
			],
			"stateMutability": "view",
			"type": "function"
		},
		{
			"inputs": [
				{
					"internalType": "address",
					"name": "",
					"type": "address"
				}
			],
			"name": "ContributersBalance",
			"outputs": [
				{
					"internalType": "uint256",
					"name": "",
					"type": "uint256"
				}
			],
			"stateMutability": "view",
			"type": "function"
		},
		{
			"inputs": [],
			"name": "campaignCounter",
			"outputs": [
				{
					"internalType": "uint256",
					"name": "",
					"type": "uint256"
				}
			],
			"stateMutability": "view",
			"type": "function"
		},
		{
			"inputs": [
				{
					"internalType": "string",
					"name": "campaignName",
					"type": "string"
				},
				{
					"internalType": "address payable",
					"name": "creatorAddress",
					"type": "address"
				},
				{
					"internalType": "uint256",
					"name": "goalAmount",
					"type": "uint256"
				}
			],
			"name": "campaignCreator",
			"outputs": [],
			"stateMutability": "nonpayable",
			"type": "function"
		},
		{
			"inputs": [
				{
					"internalType": "uint256",
					"name": "campaignIndex",
					"type": "uint256"
				}
			],
			"name": "contribute",
			"outputs": [],
			"stateMutability": "payable",
			"type": "function"
		},
		{
			"inputs": [
				{
					"internalType": "uint256",
					"name": "campaignIndex",
					"type": "uint256"
				}
			],
			"name": "showCampaigns",
			"outputs": [
				{
					"internalType": "string",
					"name": "",
					"type": "string"
				},
				{
					"internalType": "address",
					"name": "",
					"type": "address"
				},
				{
					"internalType": "uint256",
					"name": "",
					"type": "uint256"
				},
				{
					"internalType": "uint256",
					"name": "",
					"type": "uint256"
				},
				{
					"internalType": "bool",
					"name": "",
					"type": "bool"
				}
			],
			"stateMutability": "view",
			"type": "function"
		}
	]
}